{
  "contractName": "Simplebank",
  "abi": [
    {
      "inputs": [],
      "stateMutability": "nonpayable",
      "type": "constructor"
    },
    {
      "inputs": [],
      "name": "numberOfFunders",
      "outputs": [
        {
          "internalType": "uint256",
          "name": "",
          "type": "uint256"
        }
      ],
      "stateMutability": "view",
      "type": "function",
      "constant": true
    },
    {
      "inputs": [],
      "name": "owner",
      "outputs": [
        {
          "internalType": "address",
          "name": "",
          "type": "address"
        }
      ],
      "stateMutability": "view",
      "type": "function",
      "constant": true
    },
    {
      "inputs": [
        {
          "internalType": "address",
          "name": "newOwner",
          "type": "address"
        }
      ],
      "name": "transferOwnership",
      "outputs": [],
      "stateMutability": "nonpayable",
      "type": "function"
    },
    {
      "inputs": [],
      "name": "addFunds",
      "outputs": [],
      "stateMutability": "payable",
      "type": "function",
      "payable": true
    },
    {
      "inputs": [],
      "name": "getAllFunders",
      "outputs": [
        {
          "internalType": "address[]",
          "name": "",
          "type": "address[]"
        }
      ],
      "stateMutability": "view",
      "type": "function",
      "constant": true
    },
    {
      "inputs": [
        {
          "internalType": "uint256",
          "name": "withdrawAmount",
          "type": "uint256"
        }
      ],
      "name": "withdraw",
      "outputs": [],
      "stateMutability": "nonpayable",
      "type": "function"
    }
  ],
  "bytecode": "0x608060405234801561001057600080fd5b5033600460006101000a81548173ffffffffffffffffffffffffffffffffffffffff021916908373ffffffffffffffffffffffffffffffffffffffff1602179055506108d1806100616000396000f3fe6080604052600436106100555760003560e01c80632e1a7d4d1461005a5780636fbbb55d146100835780638da5cb5b146100ae578063a26759cb146100d9578063dc79a7fc146100e3578063f2fde38b1461010e575b600080fd5b34801561006657600080fd5b50610081600480360381019061007c9190610529565b610137565b005b34801561008f57600080fd5b50610098610181565b6040516100a59190610646565b60405180910390f35b3480156100ba57600080fd5b506100c361027a565b6040516100d09190610677565b60405180910390f35b6100e16102a0565b005b3480156100ef57600080fd5b506100f8610414565b60405161010591906106a1565b60405180910390f35b34801561011a57600080fd5b50610135600480360381019061013091906106e8565b61041a565b005b3373ffffffffffffffffffffffffffffffffffffffff166108fc829081150290604051600060405180830381858888f1935050505015801561017d573d6000803e3d6000fd5b5050565b60606000805467ffffffffffffffff8111156101a05761019f610715565b5b6040519080825280602002602001820160405280156101ce5781602001602082028036833780820191505090505b50905060005b600054811015610272576002600082815260200190815260200160002060009054906101000a900473ffffffffffffffffffffffffffffffffffffffff1682828151811061022557610224610744565b5b602002602001019073ffffffffffffffffffffffffffffffffffffffff16908173ffffffffffffffffffffffffffffffffffffffff1681525050808061026a906107a2565b9150506101d4565b508091505090565b600460009054906101000a900473ffffffffffffffffffffffffffffffffffffffff1681565b6000339050600160008273ffffffffffffffffffffffffffffffffffffffff1673ffffffffffffffffffffffffffffffffffffffff16815260200190815260200160002060009054906101000a900460ff166103bb57600080600081548092919061030a906107a2565b91905055905060018060008473ffffffffffffffffffffffffffffffffffffffff1673ffffffffffffffffffffffffffffffffffffffff16815260200190815260200160002060006101000a81548160ff021916908315150217905550816002600083815260200190815260200160002060006101000a81548173ffffffffffffffffffffffffffffffffffffffff021916908373ffffffffffffffffffffffffffffffffffffffff160217905550505b34600360008373ffffffffffffffffffffffffffffffffffffffff1673ffffffffffffffffffffffffffffffffffffffff168152602001908152602001600020600082825461040a91906107ea565b9250508190555050565b60005481565b600460009054906101000a900473ffffffffffffffffffffffffffffffffffffffff1673ffffffffffffffffffffffffffffffffffffffff163373ffffffffffffffffffffffffffffffffffffffff16146104aa576040517f08c379a00000000000000000000000000000000000000000000000000000000081526004016104a19061087b565b60405180910390fd5b80600460006101000a81548173ffffffffffffffffffffffffffffffffffffffff021916908373ffffffffffffffffffffffffffffffffffffffff16021790555050565b600080fd5b6000819050919050565b610506816104f3565b811461051157600080fd5b50565b600081359050610523816104fd565b92915050565b60006020828403121561053f5761053e6104ee565b5b600061054d84828501610514565b91505092915050565b600081519050919050565b600082825260208201905092915050565b6000819050602082019050919050565b600073ffffffffffffffffffffffffffffffffffffffff82169050919050565b60006105ad82610582565b9050919050565b6105bd816105a2565b82525050565b60006105cf83836105b4565b60208301905092915050565b6000602082019050919050565b60006105f382610556565b6105fd8185610561565b935061060883610572565b8060005b8381101561063957815161062088826105c3565b975061062b836105db565b92505060018101905061060c565b5085935050505092915050565b6000602082019050818103600083015261066081846105e8565b905092915050565b610671816105a2565b82525050565b600060208201905061068c6000830184610668565b92915050565b61069b816104f3565b82525050565b60006020820190506106b66000830184610692565b92915050565b6106c5816105a2565b81146106d057600080fd5b50565b6000813590506106e2816106bc565b92915050565b6000602082840312156106fe576106fd6104ee565b5b600061070c848285016106d3565b91505092915050565b7f4e487b7100000000000000000000000000000000000000000000000000000000600052604160045260246000fd5b7f4e487b7100000000000000000000000000000000000000000000000000000000600052603260045260246000fd5b7f4e487b7100000000000000000000000000000000000000000000000000000000600052601160045260246000fd5b60006107ad826104f3565b91507fffffffffffffffffffffffffffffffffffffffffffffffffffffffffffffffff82036107df576107de610773565b5b600182019050919050565b60006107f5826104f3565b9150610800836104f3565b925082820190508082111561081857610817610773565b5b92915050565b600082825260208201905092915050565b7f4f6e6c7920746865206f776e65722063616e20646f2074686174000000000000600082015250565b6000610865601a8361081e565b91506108708261082f565b602082019050919050565b6000602082019050818103600083015261089481610858565b905091905056fea26469706673582212202b84163695897cd94106eb309557c5f72d7630103355bb710e1d54482c1d7b3164736f6c63430008110033",
  "immutableReferences": {},
  "source": "// SPDX-License-Identifier: MIT\r\npragma solidity >=0.4.22 <0.9.0;\r\n// \"pragma\" means which version the solidity is\r\n \r\ncontract Simplebank {\r\n//   uint public funds = 500;\r\n//   // uint = unsigned integer\r\n  \r\n  uint public numberOfFunders;\r\n  mapping(address => bool) private funders;\r\n  mapping(uint => address) private lutFunders;\r\n  mapping(address => uint) private lastFundAmount;\r\n  address public owner;\r\n\r\n  constructor (){\r\n    owner = msg.sender;  \r\n  }\r\n\r\n  modifier onlyOwner(){\r\n    require(msg.sender == owner, \"Only the owner can do that\");\r\n    _;\r\n  }\r\n\r\n  function transferOwnership(address newOwner) external onlyOwner{\r\n    owner = newOwner;\r\n  }\r\n\r\n  function addFunds() external payable{\r\n    address funder = msg.sender;\r\n    if(!funders[funder]){\r\n      uint index = numberOfFunders++;\r\n      funders[funder] = true;\r\n      lutFunders[index] = funder;\r\n    }\r\n      lastFundAmount[funder] += msg.value;\r\n  }\r\n\r\n  function getAllFunders() external view returns(address[] memory) {\r\n    address[] memory _funders = new address[](numberOfFunders);\r\n    for(uint i=0; i<numberOfFunders; i++){\r\n      _funders[i] = lutFunders[i];\r\n    }\r\n    return _funders;\r\n  }\r\n\r\n  function withdraw(uint withdrawAmount) external {\r\n    // require(withdrawAmount < 1000000000000000000 || msg.sender == owner, \"You can't withdraw more than 1 ether\");\r\n    payable (msg.sender).transfer(withdrawAmount);\r\n\r\n  }\r\n}\r\n\r\n\r\n// const instance = await Simplebank.deployed()\r\n// instance.addFunds({value:\"500000000000000000\", from: accounts[0]})\r\n// instance.addFunds({value:\"500000000000000000\", from: accounts[1]})\r\n// const funds = instance.funds()\r\n// instance.getAllFunders()\r\n// instance.getAllFunds()\r\n// instance.withdraw(\"1000000000000000000\", {from: accounts[1]})\r\n// instance.transferOwnership(\"0x357D23Fd460c020F8a45E96d46494051E84EFdC7\")",
  "sourcePath": "C:\\tech2023\\web3test\\contracts\\Simplebank.sol",
  "compiler": {
    "name": "solc",
    "version": "0.8.17+commit.8df45f5f.Emscripten.clang"
  },
  "schemaVersion": "3.4.11",
  "updatedAt": "2023-01-10T15:03:13.492Z",
  "networkType": "ethereum",
  "devdoc": {
    "kind": "dev",
    "methods": {},
    "version": 1
  },
  "userdoc": {
    "kind": "user",
    "methods": {},
    "version": 1
  }
}